:020000040800F2
:100000003004002099040008A9040008A90400088D
:10001000A9040008A9040008A904000800000000C1
:10002000000000000000000000000000A90400081B
:10003000A904000800000000A9040008A9040008A1
:10004000990400089904000899040008990400081C
:10005000990400089904000899040008990400080C
:1000600099040008990400089904000899040008FC
:1000700099040008990400089904000899040008EC
:1000800099040008990400089904000899040008DC
:1000900099040008990400089904000899040008CC
:1000A00099040008990400089904000899040008BC
:1000B00099040008990400089904000899040008AC
:1000C000990400089904000899040008990400089C
:1000D00099040008F902000899040008990400082E
:1000E000850700089904000899040008990400088D
:1000F0009904000880B483B000AF786003E000BFCB
:100100007B68013B7B607B68012BF8D80C37BD46D0
:100110005DF8047B704700BF80B483B000AF034636
:10012000FB71084B97F907205209F97901F01F017B
:10013000012000FA01F143F822100C37BD465DF8AA
:10014000047B704700E100E080B483B000AF034659
:100150003960FB7197F90730002B0BDA0D49FB79F9
:1001600003F00F03043B3A68D2B21201D2B20B443F
:100170001A7609E0084997F907303A68D2B21201B5
:10018000D2B20B4483F800230C37BD465DF8047BE4
:10019000704700BF00ED00E000E100E080B582B0F4
:1001A00000AF524B514AD26942F00102DA61504B22
:1001B0004F4A126822F440121A604D4B4C4A1268A2
:1001C00042F400121A604A4B494A926842F44012C3
:1001D0009A60474B464AD26822F44012DA60444B98
:1001E000434A526A22F470625A62414B404A526A50
:1001F00042F4E0625A623E4B3D4A126822F44022C9
:100200001A603B4B3A4A126842F400221A60384B9B
:10021000374A928892B222F4007292B29A80344B9A
:10022000334A926842F440229A60314BDB687B602B
:100230007B6823F440237B607B6843F480237B60EE
:100240002B4B7A68DA602A4B294A526A22F0F00274
:100250005A62274B264A526A42F070025A62234B76
:10026000224A126A42F480421A62224B214A92893F
:1002700092B242F4005292B29A811E4B1D4A928968
:1002800092B222F4805292B29A811A4B194A128A7F
:1002900092B222F4405292B21A82164B154A9289B7
:1002A00092B2C2F30E0292B29A81124B40F2A112A4
:1002B0001A81104B0F4A928992B242F00C0292B20C
:1002C0009A8125200221FFF73FFF2520FFF724FF19
:1002D000084B084A928992B242F0200292B29A8167
:1002E000012318460837BD4680BD00BF00380240D4
:1002F000000002400038014080B582B000AF104BD2
:100300001B889BB203F02003002B01D000F044F8BF
:100310000B4B1B889BB203F00803002B03D0084B48
:100320009B889BB27B60064B1B889BB203F08003CB
:10033000002B01D000F006F80837BD4680BD00BF95
:100340000038014080B400AF0F4B1A680F4B1B6898
:100350009A420CD20E4B0C4A12680E498A5CD2B2F9
:100360009A80094B1B685A1C074B1A6007E0084B20
:10037000074A928992B222F0800292B29A81BD46D7
:100380005DF8047B704700BF20000020240000209F
:10039000003801400000002080B483B000AF064B5D
:1003A0009B889BB27B60054B7A681A600C37BD4610
:1003B0005DF8047B704700BF003801402800002032
:1003C00080B584B000AF786039600123FB732E4B99
:1003D00000221A607B681E2B23D90023FB732B4B52
:1003E0001E221A600023BB6017E03A68BB68134402
:1003F0001A782749BB680B441A70254ABB68134416
:100400001B78DBB2002B05D1BB685A1C1F4B1A604E
:1004100000BF2AE0BB680133BB60BB681D2BE4D979
:1004200023E01A4B7A681A600023BB6018E03A6830
:10043000BB6813441A781649BB680B441A70144AF7
:10044000BB6813441B78DBB2002B06D1BB685A1C77
:100450000E4B1A600023FB7307E0BB680133BB60DF
:100460000A4B1B68BA689A42E1D3FFF76BFF094B4E
:10047000084A928992B242F0800292B29A81FB7B42
:1004800018461037BD4680BD200000202400002003
:10049000000000200038014080B500AF00F008F8EF
:1004A00000F0CEF880BD00BF80B400AFFEE700BF13
:1004B00080B500AF144B144A126842F480721A607F
:1004C000114A114B9968114B0B4093600E4A0E4B29
:1004D0001B6823F0885323F0011313600A4B0A4A68
:1004E000126822F480221A60074B074A926822F4AD
:1004F0007D029A60044B0022DA6000F00BF8044B96
:100500004FF000629A6080BD003802400CC0FF8846
:1005100000ED00E080B500AF154B154A526A42F07D
:1005200080525A62134B4FF400621A6000F026F8B2
:10053000114B114A126842F004021A600E4B0E4A27
:10054000126842F002021A600B4B0B4A126842F02A
:1005500001021A60064B064A92689A60044B044AEC
:1005600092689A60024B024A92689A6080BD00BF0E
:100570000038024000700040003C024080B483B06C
:1005800000AF104B0F4A126842F001021A6000E0FF
:1005900000BF0C4B1B6803F00203002BF8D0094B83
:1005A0009B687B607B6823F003037B607B6843F080
:1005B00001037B60034B7A689A600C37BD465DF897
:1005C000047B70470038024080B400AF174B174AD5
:1005D000D26942F00102DA61154B154A126822F025
:1005E0000C021A60124B124A126822F00C021A60B6
:1005F0000F4B0F4A126842F004021A600C4B0C4A6F
:10060000928892B222F0020292B29A80084B084A73
:10061000926842F00C029A60054B054AD26822F0BB
:100620000C02DA60BD465DF8047B7047003802407A
:100630000000024080B400AFBD465DF8047B704707
:1006400080B500AFFFF7C0FFFFF7A8FD00F04EF840
:100650000D200349FFF7B4FE0248FFF74BFDF7E713
:10066000E007000840420F0080B483B000AF0346AB
:10067000FB71084B97F907205209F97901F01F0126
:10068000012000FA01F143F822100C37BD465DF855
:10069000047B704700E100E080B483B000AF034604
:1006A0003960FB7197F90730002B0BDA0D49FB79A4
:1006B00003F00F03043B3A68D2B21201D2B20B44EA
:1006C0001A7609E0084997F907303A68D2B2120160
:1006D000D2B20B4483F800230C37BD465DF8047B8F
:1006E000704700BF00ED00E000E100E080B500AF22
:1006F000204B204AD26942F00102DA611E4B1E4AA9
:10070000126822F040721A601B4B1B4AD26822F01A
:100710004072DA60184B184AD26842F08072DA6090
:10072000164B164A126842F480521A60134B134A51
:10073000926842F480529A60104B104AD26842F498
:100740008052DA600B4B0B4A126A42F001021A62C5
:100750000B4B0B4A926922F00F029A61084B084A30
:1007600092699A612820FFF77FFF28200121FFF777
:1007700093FF80BD003802400000024000040140A9
:100780000000014080B500AF0D4B5B6903F480535E
:10079000002B10D00B4B1B8A9BB203F48053002B11
:1007A00002D000F011F801E0FFF744FF044B4FF4D2
:1007B00080525A6103E0024B6FF07F425A6180BD64
:1007C000000401400000024080B400AF034B02224D
:1007D0001A83BD465DF8047B704700BF00000240ED
:1007E00054455354206D6573736167652E00000096
:0400000508000000EF
:00000001FF
