:020000040800F2
:1000000000A0002089010008CD010008CD010008F2
:10001000CD010008CD010008CD010008000000005E
:10002000000000000000000000000000CD010008FA
:10003000CD01000800000000CD010008CD0100083E
:10004000CD010008CD010008CD010008CD01000858
:10005000CD010008CD010008CD010008CD01000848
:10006000CD010008CD010008CD010008CD01000838
:10007000CD010008CD010008CD010008CD01000828
:10008000CD010008CD010008CD010008CD01000818
:10009000CD010008CD010008CD010008CD01000808
:1000A000CD010008CD010008CD010008CD010008F8
:1000B000CD010008CD010008CD010008CD010008E8
:1000C000CD010008CD010008CD010008CD010008D8
:1000D000CD010008450A0008CD010008CD01000847
:1000E000CD010008CD010008CD010008CD010008B8
:1000F000CD010008CD010008CD010008CD010008A8
:10010000000000000000000000000000CD01000819
:10011000CD010008CD010008CD010008E906000866
:10012000CD010008CD010008CD010008CD01000877
:10013000CD010008CD010008000000000000000013
:10014000CD010008CD010008CD010008000000002D
:10015000000000000000000000000000000000009F
:100160000000000000000000CD010008CD010008E3
:10017000CD010008000000000000000000000000A9
:1001800000000000CD010008002103E00A4B5B588D
:100190004350043109480A4B42189A42F6D3094A9F
:1001A00002E0002342F8043B074B9A42F9D300F0E7
:1001B0000FF800F007FB70473C0C0008000000201F
:1001C000200000202000002050000020FEE700005A
:1001D00080B500AF1A4A1A4B1B6843F00103136045
:1001E0001749174B5A68174B13404B60144A144B6E
:1001F0001B6823F0847323F480331360104A104B80
:100200001B6823F4802313600D4A0D4B5B6823F4B5
:10021000FE0353600A4A0A4BDB6A23F00F03D362E2
:100220000749074B1A6B084B13400B63044B002222
:100230009A6000F077F8054B4FF000629A6080BD3D
:10024000001002400CC07FF8CCFC00FF00ED00E085
:1002500080B485B000AF0023FB600023BB600023A7
:100260007B6000233B602A4B5B6803F00C03FB6060
:10027000FB68042B07D0082B09D0002B2FD1254B6E
:10028000254A1A602FE0234B234A1A602BE0204BAB
:100290005B6803F47013BB601D4B5B6803F4803331
:1002A0007B60BB689B0C0233BB607B68002B06D174
:1002B000BB681A4A02FB03F3164A136013E0144B9F
:1002C000DB6A03F00F0301333B60134A3B68B2FB68
:1002D000F3F3BA6802FB03F30E4A136003E00D4B1D
:1002E0000D4A1A6000BF0A4B5B6803F0F0031B095C
:1002F0000B4AD35CDBB2FB60064B1A68FB6822FA40
:1003000003F3044A13601437BD465DF8047B70475D
:10031000001002400000002000127A0000093D0099
:100320000400002080B483B000AF00237B60002372
:100330003B60324A314B1B6843F4803313602F4BD0
:100340001B6803F400333B607B6801337B603B68D0
:10035000002B03D17B68B3F5A06FF0D1274B1B684E
:1003600003F40033002B02D001233B6001E00023A3
:100370003B603B68012B3CD1214B12221A601F4A83
:100380001E4B5B6853601D4A1C4B5B6853601B4AE5
:100390001A4B5B6843F480635360184A174B5B68E1
:1003A00023F47C135360154A144B5B6843F4E81341
:1003B0005360124A114B1B6843F08073136000BFF7
:1003C0000E4B1B6803F00073002BF9D00B4A0B4B4C
:1003D0005B6823F003035360084A084B5B6843F0F3
:1003E0000203536000BF054B5B6803F00C03082B4E
:1003F000F9D10C37BD465DF8047B70470010024010
:100400000020024080B400AF3A4A3A4B5B6943F4A3
:1004100000235361374A374B5B6943F480035361D0
:10042000344A344B5B6943F400135361324A324B14
:100430001B6823F0FF0313602F4A2F4B1B6843F008
:10044000550313602C4A2C4B9B889BB223F00F035F
:100450009BB29380284A284B9B6843F0FF0393602C
:10046000254A254BDB6823F0FF03D360234A234B47
:100470001B6823F030031360204A204B1B6843F0B5
:10048000100313601D4A1D4B9B889BB223F004038D
:100490009BB29380194A194B9B6843F030039360D9
:1004A000164A164BDB6823F03003D360144A144B12
:1004B0001B6823F440531360114A114B1B6843F42B
:1004C000805313600E4A0E4B9B889BB223F040036F
:1004D0009BB293800A4A0A4B9B6843F44053936053
:1004E000074A074BDB6823F44053D360BD465DF8F1
:1004F000047B7047001002400008004800140048C8
:100500000010004880B400AF034B08229A61BD463A
:100510005DF8047B704700BF0008004880B400AF5E
:10052000034B04229A61BD465DF8047B704700BF0F
:100530000014004880B400AF034B02229A61BD460C
:100540005DF8047B704700BF0008004880B400AF2E
:10055000034B01229A61BD465DF8047B704700BFE2
:100560000008004880B400AF034B40229A61BD46AA
:100570005DF8047B704700BF0010004880B400AFF6
:10058000034B04229A61BD465DF8047B704700BFAF
:100590000008004880B400AF034B4FF400229A617A
:1005A000BD465DF8047B70470008004880B400AF8A
:1005B000034B4FF480229A61BD465DF8047B70477F
:1005C0000014004880B400AF034B4FF400329A612E
:1005D000BD465DF8047B70470008004880B400AF5A
:1005E000034B4FF480329A61BD465DF8047B70473F
:1005F0000008004880B400AF034B4FF480029A61BA
:10060000BD465DF8047B70470010004880B400AF21
:10061000034B4FF480229A61BD465DF8047B70471E
:100620000008004880B400AF054A054B9B8A9BB286
:1006300083F040039BB29382BD465DF8047B704714
:100640000010004880B400AF054A054B9B8A9BB25E
:1006500083F008039BB29382BD465DF8047B70472C
:100660000008004880B483B000AF0346FB7108491E
:1006700097F907305B09FA7902F01F02012000FAAE
:1006800002F241F823200C37BD465DF8047B704729
:1006900000E100E080B483B000AF03463960FB7135
:1006A00097F90730002B0BDA0D49FB7903F00F03A4
:1006B000043B3A68D2B21201D2B20B441A7609E076
:1006C000084997F907303A68D2B21201D2B20B4406
:1006D00083F800230C37BD465DF8047B704700BFEC
:1006E00000ED00E000E100E080B500AF304B6FF0BE
:1006F00001021A612F4B1B780133DAB22D4B1A70AD
:100700002C4B1B783B2B31D92B4B1B780133DAB2A6
:10071000294B1A70284B1B783B2B02D9264B002201
:100720001A70244B00221A70234B1B78234AA2FB19
:100730000323DB08DBB23033DAB2214B5A711E4B94
:100740001A781E4BA3FB0213D9080B469B000B44DF
:100750005B00D31ADBB23033DAB2194B9A71184B03
:1007600030221A72164B30225A721AE0114B1B7843
:10077000124AA2FB0323DB08DBB23033DAB2104BA0
:100780001A720C4B1A780D4BA3FB0213D9080B46B7
:100790009B000B445B00D31ADBB23033DAB2084B58
:1007A0005A72FFF73FFF0A20054900F0ADF980BDFE
:1007B000001400404900002048000020CDCCCCCCE3
:1007C0001400002080B500AFFFF71CFE00F07CF89D
:1007D000184B00221A70184B00221A70174A174B38
:1007E000DB6943F02003D361154A154BDB6823F422
:1007F0008073D360124A124BDB6843F00103D3606D
:100800000F4B4FF6FF721A850D4B40F22522DA622C
:100810000B4A0B4B1B889BB243F001039BB2138026
:1008200037200121FFF736FF3720FFF71BFF30BFCE
:10083000FDE700BF490000204800002000100240F2
:100840000014004080B483B000AF0346FB71084938
:1008500097F907305B09FA7902F01F02012000FACC
:1008600002F241F823200C37BD465DF8047B704747
:1008700000E100E080B483B000AF03463960FB7153
:1008800097F90730002B0BDA0D49FB7903F00F03C2
:10089000043B3A68D2B21201D2B20B441A7609E094
:1008A000084997F907303A68D2B21201D2B20B4424
:1008B00083F800230C37BD465DF8047B704700BF0A
:1008C00000ED00E000E100E080B582B000AF5B4ADF
:1008D0005A4B5B6943F4003353614FF090424FF041
:1008E00090431B6823F4401313604FF090424FF085
:1008F00090431B6843F4001313604FF090424FF095
:1009000090439B6843F4401393604FF090424FF044
:100910009043DB6823F44013D3604FF090424FF0D4
:1009200090435B6A23F4706353624FF090424FF040
:1009300090435B6A43F4E06353624FF090424FF0A0
:1009400090431B6823F4402313604FF090424FF014
:1009500090431B6843F4002313604FF090424FF024
:1009600090439B889BB223F400739BB293804FF01B
:1009700090424FF090439B6843F4402393604FF0C4
:100980009043DB687B607B6823F440237B607B685B
:1009900043F480237B604FF090427B68D3604FF03C
:1009A00090424FF090435B6A23F0F00353624FF0A4
:1009B00090424FF090435B6A43F0700353621F4ACA
:1009C0001E4B9B6943F4804393611D4A1C4B1B687B
:1009D00043F0010313601A4A194B1B6823F4805338
:1009E0001360174A164B5B6823F440535360144A54
:1009F000134B1B6823F400431360114B40F2A31206
:100A00009A810F4A0E4B1B6843F00C03136000F0F1
:100A1000E7F800F007F925200221FFF72BFF25203A
:100A2000FFF710FF064A064B1B6843F020031360D4
:100A3000012318460837BD4680BD00BF00100240A4
:100A40000038014080B582B000AF104BDB6903F085
:100A50002003002B01D000F043F80C4BDB6903F0BE
:100A60000803002B06D0094B08221A62074B9B8C07
:100A70009BB27B60054BDB6903F08003002B01D048
:100A800000F006F80837BD4680BD00BF00380140C1
:100A900080B400AF0E4B1A680E4B1B689A420DD201
:100AA0000D4A0B4B1B680D49CB5CDBB29BB2138527
:100AB000074B1B680133064A136005E0064A064BE4
:100AC0001B6823F080031360BD465DF8047B70470C
:100AD0004000002044000020003801402000002099
:100AE00080B483B000AF064B9B8C9BB27B60054A01
:100AF0007B6813600C37BD465DF8047B704700BF10
:100B0000003801404C00002080B584B000AF786010
:100B100039600123FB732E4B00221A607B681E2B69
:100B200024D90023FB732B4B1E221A600023BB60C9
:100B300018E03A68BB6813441978274ABB68134425
:100B40000A461A70244ABB6813441B78DBB2002B98
:100B500005D1BB6801331F4A136000BF2BE0BB689F
:100B60000133BB60BB681D2BE3D924E0194A7B68C5
:100B700013600023BB6019E03A68BB68134419781E
:100B8000154ABB6813440A461A70134ABB681344DB
:100B90001B78DBB2002B06D1BB6801330D4A136012
:100BA0000023FB7307E0BB680133BB60094B1B6884
:100BB000BA689A42E0D3FFF76BFF084A074B1B68FD
:100BC00043F080031360FB7B18461037BD4680BDA1
:100BD0004000002044000020200000200038014098
:100BE00080B483B000AF00237B6007E00A4A7B68D3
:100BF000134400221A707B6801337B607B681D2BD5
:100C0000F4D9064B00221A60054B00221A600C37FB
:100C1000BD465DF8047B70472000002040000020A6
:100C20004400002080B400AF034B00221A60BD4690
:0C0C30005DF8047B704700BF4C00002002
:100C3C0000A24A04000000000000000001020304AE
:100C4C000607080954696D652078783A78780000B1
:0400000508000000EF
:00000001FF
